:020000040800F2
:1000000000800120552F0008730D0008810D0008A5
:10001000870D00088D0D0008930D000800000000FA
:10002000000000000000000000000000990D000822
:10003000A70D000800000000B50D0008C30D000862
:100040009D2F00089D2F00089D2F00089D2F000860
:100050009D2F00089D2F0008110E00089D2F0008FD
:100060009D2F00089D2F00089D2F00089D2F000840
:100070009D2F00089D2F00089D2F00089D2F000830
:100080009D2F00089D2F00089D2F00089D2F000820
:100090009D2F00089D2F00089D2F00089D2F000810
:1000A0009D2F00089D2F00089D2F00089D2F000800
:1000B0009D2F00089D2F00089D2F00089D2F0008F0
:1000C0009D2F00089D2F00089D2F00089D2F0008E0
:1000D0009D2F00089D2F00089D2F00089D2F0008D0
:1000E0009D2F00089D2F00089D2F00089D2F0008C0
:1000F0009D2F00089D2F00089D2F00089D2F0008B0
:100100009D2F00089D2F00089D2F00089D2F00089F
:100110009D2F00089D2F00089D2F00089D2F00088F
:100120009D2F00089D2F00089D2F00089D2F00087F
:100130009D2F00089D2F00089D2F00089D2F00086F
:1001400000000000000000000000000000000000AF
:100150009D2F00089D2F00089D2F00089D2F00084F
:100160009D2F00089D2F00089D2F00089D2F00083F
:100170009D2F00089D2F00089D2F00089D2F00082F
:040180009D2F0008A7
:1001900010B5054C237833B9044B13B10448AFF3C1
:1001A00000800123237010BD200600200000000005
:1001B000447F000808B5034B1BB103490348AFF364
:1001C000008008BD0000000024060020447F0008D5
:1001D00081F0004102E000BF83F0004330B54FEAF8
:1001E00041044FEA430594EA050F08BF90EA020F65
:1001F0001FBF54EA000C55EA020C7FEA645C7FEAF8
:10020000655C00F0E2804FEA5454D4EB5555B8BF1A
:100210006D420CDD2C4480EA020281EA030382EA8B
:10022000000083EA010180EA020281EA0303362D1D
:1002300088BF30BD11F0004F4FEA01314FF4801CF0
:100240004CEA113102D0404261EB410113F0004F02
:100250004FEA03334CEA133302D0524263EB4303B9
:1002600094EA050F00F0A780A4F10104D5F1200E57
:100270000DDB02FA0EFC22FA05F2801841F10001B2
:1002800003FA0EF2801843FA05F359410EE0A5F186
:1002900020050EF1200E012A03FA0EFC28BF4CF0B7
:1002A000020C43FA05F3C01851EBE37101F000456D
:1002B00007D54FF0000EDCF1000C7EEB00006EEB7A
:1002C0000101B1F5801F1BD3B1F5001F0CD3490804
:1002D0005FEA30004FEA3C0C04F101044FEA44525B
:1002E00012F5800F80F09A80BCF1004F08BF5FEAE2
:1002F000500C50F1000041EB045141EA050130BDC2
:100300005FEA4C0C404141EB0101013C28BFB1F5D3
:10031000801FE9D291F0000F04BF01460020B1FA1E
:1003200081F308BF2033A3F10B03B3F120020CDAF1
:100330000C3208DD02F1140CC2F10C0201FA0CF0CF
:1003400021FA02F10CE002F11402D8BFC2F1200C34
:1003500001FA02F120FA0CFCDCBF41EA0C019040EA
:10036000E41AA2BF01EB0451294330BD6FEA040433
:100370001F3C1CDA0C340EDC04F11404C4F120021E
:1003800020FA04F001FA02F340EA030021FA04F330
:1003900045EA030130BDC4F10C04C4F1200220FA87
:1003A00002F001FA04F340EA0300294630BD21FAC5
:1003B00004F0294630BD94F0000F83F4801306BF8B
:1003C00081F480110134013D4EE77FEA645C18BF7F
:1003D0007FEA655C29D094EA050F08BF90EA020F16
:1003E00005D054EA000C04BF1946104630BD91EA0E
:1003F000030F1EBF0021002030BD5FEA545C05D111
:100400004000494128BF41F0004130BD14F580044F
:100410003CBF01F5801130BD01F0004545F0FE41C3
:1004200041F470014FF0000030BD7FEA645C1ABFF8
:10043000194610467FEA655C1CBF0B46024650EA2F
:10044000013406BF52EA033591EA030F41F400215B
:1004500030BD00BF90F0000F04BF0021704730B5E1
:100460004FF4806404F132044FF000054FF00001B6
:1004700050E700BF90F0000F04BF0021704730B577
:100480004FF4806404F1320410F0004548BF40424C
:100490004FF000013EE700BF42004FEAE2014FEAA1
:1004A00031014FEA02701FBF12F07F4393F07F4F7C
:1004B00081F06051704732F07F4208BF704793F07F
:1004C0007F4F04BF41F40021704730B54FF4607492
:1004D00001F0004521F000411CE700BF50EA010295
:1004E00008BF704730B54FF000050AE050EA01023E
:1004F00008BF704730B511F0004502D5404261EBAE
:1005000041014FF4806404F132045FEA915C3FF4EE
:10051000D8AE4FF003025FEADC0C18BF03325FEA8B
:10052000DC0C18BF033202EBDC02C2F1200300FA3C
:1005300003FC20FA02F001FA03FE40EA0E0021FA61
:1005400002F11444BDE600BF70B54FF0FF0C4CF44F
:10055000E06C1CEA11541DBF1CEA135594EA0C0F01
:1005600095EA0C0F00F0DEF82C4481EA030621EA3C
:100570004C5123EA4C5350EA013518BF52EA033577
:1005800041F4801143F4801338D0A0FB02CE4FF029
:100590000005E1FB02E506F00042E0FB03E54FF059
:1005A0000006E1FB03569CF0000F18BF4EF0010E51
:1005B000A4F1FF04B6F5007F64F5407404D25FEA4D
:1005C0004E0E6D4146EB060642EAC62141EA555100
:1005D0004FEAC52040EA5E504FEACE2EB4F1FD0C42
:1005E00088BFBCF5E06F1ED8BEF1004F08BF5FEAC0
:1005F000500E50F1000041EB045170BD06F0004672
:1006000046EA010140EA020081EA0301B4EB5C041E
:10061000C2BFD4EB0C0541EA045170BD41F4801116
:100620004FF0000E013C00F3AB8014F1360FDEBF3B
:10063000002001F0004170BDC4F10004203C35DA17
:100640000C341BDC04F11404C4F1200500FA05F39A
:1006500020FA04F001FA05F240EA020001F000423B
:1006600021F0004110EBD37021FA04F642EB0601B1
:100670005EEA430E08BF20EAD37070BDC4F10C04DB
:10068000C4F1200500FA04F320FA05F001FA04F29F
:1006900040EA020001F0004110EBD37041F100018B
:1006A0005EEA430E08BF20EAD37070BDC4F1200596
:1006B00000FA05F24EEA020E20FA04F301FA05F2FE
:1006C00043EA020321FA04F001F0004121FA04F2A6
:1006D00020EA020000EBD3705EEA430E08BF20EA76
:1006E000D37070BD94F0000F0FD101F000464000B0
:1006F00041EB010111F4801F08BF013CF7D041EA32
:10070000060195F0000F18BF704703F00046520035
:1007100043EB030313F4801F08BF013DF7D043EA06
:100720000603704794EA0C0F0CEA135518BF95EABC
:100730000C0F0CD050EA410618BF52EA4306D1D143
:1007400081EA030101F000414FF0000070BD50EA62
:10075000410606BF1046194652EA430619D094EAEC
:100760000C0F02D150EA013613D195EA0C0F05D1D6
:1007700052EA03361CBF104619460AD181EA03012A
:1007800001F0004141F0FE4141F470014FF00000E2
:1007900070BD41F0FE4141F4780170BD70B54FF07D
:1007A000FF0C4CF4E06C1CEA11541DBF1CEA1355FD
:1007B00094EA0C0F95EA0C0F00F0A7F8A4EB0504DF
:1007C00081EA030E52EA03354FEA013100F08880D6
:1007D0004FEA03334FF0805545EA131343EA12639F
:1007E0004FEA022245EA111545EA10654FEA002654
:1007F0000EF000419D4208BF964244F1FD0404F50D
:10080000407402D25B084FEA3202B61A65EB030568
:100810005B084FEA32024FF480104FF4002CB6EB25
:10082000020E75EB030E22BFB61A754640EA0C00A5
:100830005B084FEA3202B6EB020E75EB030E22BFE5
:10084000B61A754640EA5C005B084FEA3202B6EB26
:10085000020E75EB030E22BFB61A754640EA9C00E5
:100860005B084FEA3202B6EB020E75EB030E22BFB5
:10087000B61A754640EADC0055EA060E18D04FEA73
:10088000051545EA16754FEA06164FEAC30343EA13
:1008900052734FEAC2025FEA1C1CC0D111F4801FE0
:1008A0000BD141EA00014FF000004FF0004CB6E7D9
:1008B00011F4801F04BF01430020B4F1FD0C88BF78
:1008C000BCF5E06F3FF6AFAEB5EB030C04BFB6EB83
:1008D000020C5FEA500C50F1000041EB045170BD76
:1008E0000EF0004E4EEA113114EB5C04C2BFD4EBA3
:1008F0000C0541EA045170BD41F480114FF0000E27
:10090000013C90E645EA060E8DE60CEA135594EAA2
:100910000C0F08BF95EA0C0F3FF43BAF94EA0C0FA5
:100920000AD150EA01347FF434AF95EA0C0F7FF41A
:1009300025AF104619462CE795EA0C0F06D152EA6E
:1009400003353FF4FDAE1046194622E750EA410652
:1009500018BF52EA43067FF4C5AE50EA41047FF463
:100960000DAF52EA43057FF4EBAE12E74FEA4102C6
:1009700012F5001215D211D56FF47873B3EB6252F1
:1009800012D94FEAC12343F0004343EA505311F018
:10099000004F23FA02F018BF404270474FF00000AA
:1009A000704750EA013005D111F0004008BF6FF0E8
:1009B000004070474FF00000704700BF034613F837
:1009C000012B002AFBD1181A0138704700000000E3
:1009D00001F0FF01102A2BDB10F0070F08D010F8F0
:1009E000013B013A8B422DD010F0070F42B3F6D1F4
:1009F000F0B441EA012141EA014122F007047FF00D
:100A000000070023F0E80256083C85EA010586EA63
:100A1000010685FA47F5A3FA87F586FA47F6A5FA9F
:100A200087F68EB9EED1F0BC01F0FF0102F00702AB
:100A300032B110F8013B013A83EA010313B1F8D156
:100A40000020704701387047002D06BF3546033837
:100A5000073815F0010F07D1013015F4807F02BF70
:100A6000013015F4C03F0130F0BC0138704700BFC1
:100A70004FF0FF3C06E000BF4FF0010C02E000BF6A
:100A80004FF0010C4DF804CD4FEA410C7FEA6C5C4D
:100A90004FEA430C18BF7FEA6C5C1BD001B050EAF0
:100AA000410C0CBF52EA430C91EA030F02BF90EADB
:100AB000020F0020704710F1000F91EA030F58BF9A
:100AC000994208BF90422CBFD8176FEAE37040F0FC
:100AD000010070474FEA410C7FEA6C5C02D150EA9A
:100AE000013C07D14FEA430C7FEA6C5CD6D152EA55
:100AF000033CD3D05DF8040B704700BF844610461A
:100B000062468C461946634600E000BF01B5FFF718
:100B1000B7FF002848BF10F1000F01BD4DF808EDE8
:100B2000FFF7F4FF0CBF012000205DF808FB00BFB9
:100B30004DF808EDFFF7EAFF34BF012000205DF813
:100B400008FB00BF4DF808EDFFF7E0FF94BF012060
:100B500000205DF808FB00BF4DF808EDFFF7CEFF61
:100B600094BF012000205DF808FB00BF4DF808EDA0
:100B7000FFF7C4FF34BF012000205DF808FB00BF71
:100B80004FEA410C7FEA6C5C02D150EA013C0AD189
:100B90004FEA430C7FEA6C5C02D152EA033C02D17B
:100BA0004FF0000070474FF0010070474A0011D22B
:100BB00012F5001211D20DD56FF47873B3EB6252B7
:100BC0000ED44FEAC12343F0004343EA505323FAC3
:100BD00002F070474FF00000704750EA013002D138
:100BE0004FF0FF3070474FF0000070474FEA41026E
:100BF000B2F1E04324BFB3F5001CDCF1FE5C0DD97B
:100C000001F0004C4FEAC0024CEA5070B2F1004FC4
:100C100040EB830008BF20F00100704711F0804FC7
:100C200021D113F13872BCBF01F00040704741F48C
:100C300080114FEA5252C2F11802C2F1200C10FA90
:100C40000CF320FA02F018BF40F001004FEAC12374
:100C50004FEAD32303FA0CFC40EA0C0023FA02F318
:100C60004FEA4303CCE77FEA625307D150EA0133EE
:100C70001EBF4FF0FE4040F44000704701F00040BE
:100C800040F0FE4040F40000704700BF38B500223D
:100C9000002304460D46FFF74BFF28B9204629469E
:100CA000BDE8384000F00AB8204605F1004100F0E8
:100CB00005F8404261EB410138BD00BFD0B50C4B97
:100CC000002206460F46FFF73FFCFFF76FFF044682
:100CD000FFF7C0FB074B0022FFF736FC02460B462E
:100CE00030463946FFF778FAFFF760FF2146D0BD5E
:100CF0000000F03D0000F04180B500AF00F044FC82
:100D00000121012000F040FD00BF00F09BFC0346E4
:100D1000002BFAD001223B21022000F0EDFD002043
:100D200000F062FF0121022000F02EFD00BF19201B
:100D300000F060FC0346012BF9D1002000F078FDA3
:100D4000042000F0A1FD042000F088FD012000F047
:100D50002FFF022000F01EFE00BF00F031FE034610
:100D6000022BFAD1002000F023FF02F05DF900BF52
:100D700080BD80B400AF00BFBD465DF8047B704706
:100D800080B400AFFEE780B400AFFEE780B400AFF0
:100D9000FEE780B400AFFEE780B400AF00BFBD4601
:100DA0005DF8047B704780B400AF00BFBD465DF8BE
:100DB000047B704780B400AF00BFBD465DF8047B84
:100DC000704780B400AF00BFBD465DF8047B70473C
:100DD00080B500AF052002F0D7FA012001F054F8E9
:100DE0000121094801F024F90346012B0AD1074BE0
:100DF0001B78042B03D1054B01221A7002E0034B30
:100E000004221A7000BF80BD0008014000000020CD
:100E100080B500AFFFF7DCFF00BF80BD80B584B0B8
:100E200000AF78600121144800F031FC0121134823
:100E300000F02DFC07F10803184601F0DFF8082345
:100E4000BB734FF40073BB6007F1080319460C48ED
:100E500001F038F80023002279680A4801F0AEF961
:100E60000121084801F02FFA0121064801F016FA85
:100E700000BF1037BD4680BD0E00180002001800EC
:100E8000000801400038014080B586B000AF012164
:100E90004FF4A01000F0FBFB134800F0BBFE3B1D1D
:100EA000184600F067FF0123FB810023BB810F4B35
:100EB000BB600123FB7400237B740D4B7B6001231B
:100EC000BB7400233B7402237B7501233B753B1DE0
:100ED0001946054800F076FF0121034800F0F0FEB6
:100EE00000BF1837BD4680BD080002403E06002006
:100EF0004C24014080B582B000AF0121254800F0AC
:100F0000C6FB002000F0D6FC234800F011F90020B9
:100F100000F05EF93B1D184600F070F900233B71AC
:100F200001237B710023BB710123FB713B1D19461B
:100F3000194800F079F9072301221021164800F022
:100F400003FA01220721144800F0BAFA01211248DD
:100F500000F09FF9012000F0EBFA01210E4800F0AB
:100F600021F90D4800F0AAF900BF0B4800F0B5F9CF
:100F70000346002BF9D1084800F0C3F900BF06482A
:100F800000F0CEF90346002BF9D100BF00BF0837AF
:100F9000BD4680BD0900180000240140000000008B
:100FA000B0B588B000AF032001F0DCF8FFF7A4FE75
:100FB00002F012F9002002F0A3F9012002F0A0F9DA
:100FC000022002F09DF94FF4E130FFF727FFFFF711
:100FD0005BFFFFF78FFF4C4803F06AF901214B4894
:100FE00000F0BCFA4FF000024FF00003C7E90623FF
:100FF000474B3C461D460FCD0FC495E803002060CB
:101000000434218002340B0C2370424B424A1A6094
:10101000424800F0E3FC3F4B1B689B6898473D4B00
:101020001B685B694FF6FF709847032002F0F8F9E0
:10103000384B1B689C6938464FF4784301220121E4
:10104000A047002002F038F9012002F0E9F900BFC2
:10105000022000F04BFE0346002BF9D0022000F0E6
:101060006DFE2F4B1B889BB21846FFF7F3F920A3A8
:10107000D3E90023FFF768FA02460B4610461946EB
:101080004FF00002274BFFF789FB02460B461AA1DF
:10109000D1E90001FFF7A0F802460B4610461946B9
:1010A00017A3D3E90023FFF779FB02460B4610464E
:1010B00019464FF000021C4BFFF790F802460B4612
:1010C000C7E90623D7E90623184803F06BF8114B4C
:1010D0001B68DC69D7E90601FFF748FC034698B2B4
:1010E0004FF478431A220121A047AAE7AFF300800A
:1010F0006666666666660A40295C8FC2F528F43F1C
:1011000033E197FA795371BF607F000800240140F2
:10111000A47F00085C060020040400204006002094
:101120003E0600200000B04000003940807F0008EB
:1011300080B582B000AF78607B68144A934208D1D2
:101140000121134800F0E1FA0021114800F0DDFA16
:1011500018E07B680F4A934208D101210E4800F045
:10116000D4FA00210C4800F0D0FA0BE07B680B4A5F
:10117000934207D101210A4800F0C7FA002108482C
:1011800000F0C3FA00BF0837BD4680BD002401400F
:1011900009000C00002801400A000C00003C01403E
:1011A0000F000C0080B483B000AF78600B46FB707A
:1011B000FB7803F00103D9B27A68936861F3000306
:1011C000936000BF0C37BD465DF8047B704700009C
:1011D00080B483B000AF0346FB71074AFB7903F08C
:1011E0000F03D9B2536861F31343536000BF0C3748
:1011F000BD465DF8047B70470024014080B483B095
:1012000000AF78607B6800221A707B6800225A70F9
:101210007B6800229A707B680122DA7000BF0C376D
:10122000BD465DF8047B704780B483B000AF786042
:1012300039603B681B7803F00103D9B27A685368C0
:1012400061F3082353603B685B7803F00103D9B274
:101250007A68936861F3410393603B689B7803F07D
:101260000103D9B27A68936861F3CB2393603B683A
:10127000DB78013BDBB203F00F03D9B27A68D36AA3
:1012800061F31753D36200BF0C37BD465DF8047B92
:10129000704780B483B000AF78600B46FB70FB787A
:1012A00003F00103D9B27A68936861F3082393606D
:1012B00000BF0C37BD465DF8047B704780B483B037
:1012C00000AF78607A68936843F00803936000BFCA
:1012D0000C37BD465DF8047B704780B483B000AF27
:1012E00078607B689B68C3F3C003DBB2002B01D03E
:1012F000012300E0002318460C37BD465DF8047B4F
:10130000704780B483B000AF78607A68936843F028
:101310000403936000BF0C37BD465DF8047B704743
:1013200080B483B000AF78607B689B68C3F38003B0
:10133000DBB2002B01D0012300E0002318460C375C
:10134000BD465DF8047B704780B485B000AF78601F
:10135000084611461A460346FB700B46BB701346FF
:101360007B70FB78092B1DD87B681B69FB60FA78C2
:1013700013465B001344072202FA03F3DB431A46C9
:10138000FB681340FB607978FA7813465B001344DE
:1013900001FA03F31A46FB681343FB607B68FA68A3
:1013A0001A6120E07B68DB68FB60FB78A3F10A022E
:1013B00013465B001344072202FA03F3DB431A4689
:1013C000FB681340FB607978FB78A3F10A021346AF
:1013D0005B00134401FA03F31A46FB681343FB60F6
:1013E0007B68FA68DA60BB780C2B21D97B68DB6AF2
:1013F000FB60BB78A3F10D0213469B0013441F2230
:1014000002FA03F3DB431A46FB681340FB60F978EA
:10141000BB78A3F10D0213469B00134401FA03F3BA
:101420001A46FB681343FB607B68FA68DA6241E0A6
:10143000BB78062B1FD97B681B6BFB60BB78DA1F60
:1014400013469B0013441F2202FA03F3DB431A46A0
:10145000FB681340FB60F978BB78DA1F13469B00EA
:10146000134401FA03F31A46FB681343FB607B68DD
:10147000FA681A631EE07B685B6BFB60BB785A1EE0
:1014800013469B0013441F2202FA03F3DB431A4660
:10149000FB681340FB60F978BB785A1E13469B002B
:1014A000134401FA03F31A46FB681343FB607B689D
:1014B000FA685A6300BF1437BD465DF8047B704775
:1014C00080B483B000AF78600B46FB701346BB70EE
:1014D000FB78072B0ED97A68936843F0007393600A
:1014E000FB7803F00703D9B27A68936861F353433A
:1014F00093600DE07A6893686FF359639360FB78AB
:1015000003F00703D9B27A68936861F35343936099
:10151000BB7803F00103D9B27A68936861F314537E
:10152000936000BF0C37BD465DF8047B7047000038
:1015300080B483B000AF0346FB71074AFB7903F028
:101540000103D9B2936861F3D753936000BF0C379E
:10155000BD465DF8047B70470024014080B483B031
:1015600000AF78600B46FB70FB7803F00103D9B243
:101570007A68936861F39653936000BF0C37BD4659
:101580005DF8047B7047000080B400AF184A136810
:1015900043F00103136000BF154B1B68C3F3400306
:1015A000DBB2012BF8D1124A53686FF30103536089
:1015B00000BF0F4B5B68C3F38103DBB2002BF8D194
:1015C0000B4B1B680A4A23F0867323F480331360A5
:1015D000074B00225A60064B00221A63044B4FF45B
:1015E0001F029A6000BFBD465DF8047B704700BFD4
:1015F0000010024080B485B000AF78600023FB7318
:101600007B681B0C03F1804303F504331A687B6885
:1016100003F01F03012101FA03F31A407B6803F072
:101620001F03012101FA03F39A4202D00023FB7346
:1016300001E00123FB73FB7B18461437BD465DF8C0
:10164000047B704780B582B000AF00237B6000232D
:10165000FB7002E07B6801337B601120FFF7CAFF5B
:101660000346012B03D07B68B3F5405FF2D3112012
:10167000FFF7C0FF0346012B02D00023FB7001E0FF
:101680000123FB70FB7818460837BD4680BD80B447
:1016900083B000AF78600B46FB70FB78012B16D14E
:1016A0007B681B0C03F1804303F5043319687B68E6
:1016B00003F01F0301229A407B681B0C03F1804357
:1016C00003F50433184641EA0203036017E07B6820
:1016D0001B0C03F1804303F5043319687B6803F0A6
:1016E0001F03012202FA03F3DA437B681B0C03F1A8
:1016F000804303F50433184601EA0203036000BF88
:101700000C37BD465DF8047B704780B483B000AFF2
:1017100078600B46FB70FB78012B16D17B681B0CA5
:1017200003F1804303F5043319687B6803F01F035A
:1017300001229A407B681B0C03F1804303F50433BC
:10174000184641EA0203036017E07B681B0C03F1B3
:10175000804303F5043319687B6803F01F030122FB
:1017600002FA03F3DA437B681B0C03F1804303F5B1
:101770000433184601EA0203036000BF0C37BD467C
:101780005DF8047B7047000080B483B000AF03466F
:101790000A46FB711346BB71FB79042B3ED801A2AC
:1017A00052F823F0B9170008CD170008E117000818
:1017B000F5170008091800081C4ABB7903F001035B
:1017C000D9B2136861F30003136028E0174ABB79AC
:1017D00003F00103D9B2136861F3104313601EE0F4
:1017E000124ABB7903F00103D9B2136861F318639D
:1017F000136014E00D4ABB7903F00103D9B2136AF8
:1018000061F3000313620AE0084ABB7903F00103A5
:10181000D9B2536A61F30003536200E000BF00BF16
:101820000C37BD465DF8047B704700BF00100240D6
:1018300080B483B000AF0346FB71074AFB7903F025
:101840000F03D9B2536861F30713536000BF0C371D
:10185000BD465DF8047B70470010024080B483B041
:1018600000AF0346FB71074AFB7903F00703D9B2C7
:10187000536861F30A23536000BF0C37BD465DF81F
:10188000047B70470010024080B483B000AF034671
:10189000FB71074AFB7903F00703D9B2536861F380
:1018A000CD23536000BF0C37BD465DF8047B704705
:1018B0000010024080B483B000AF0346FB710D4AB4
:1018C000FB7903F00303D9B2536861F38F3353609C
:1018D000FB799B08DBB2074A03F00103D9B25368D6
:1018E00061F31C73536000BF0C37BD465DF8047B89
:1018F000704700BF0010024080B483B000AF0346C1
:10190000FB710B46BB7113467B71FB79002B0AD12F
:101910001F4A53686FF3104353601D4A136B43F023
:101920000073136312E01A4A536843F48033536020
:10193000FB79012B05D1164A53686FF3514353606D
:1019400004E0134A536843F400335360104ABB79F0
:1019500003F00F03D9B2536861F395435360BB7929
:101960001B110B4A03F00303D9B2536861F35E7392
:101970005360074A7B7903F00103D9B2536861F3DE
:10198000DF73536000BF0C37BD465DF8047B7047C2
:101990000010024080B483B000AF0346FB71074AD9
:1019A000FB7903F00303D9B2536861F30103536079
:1019B00000BF0C37BD465DF8047B70470010024045
:1019C00080B400AF044B5B68C3F38103DBB21846FD
:1019D000BD465DF8047B70470010024080B58AB0B8
:1019E00000AF786000233B6200237B620023FB6131
:1019F0000023BB6100237B6100233B61FFF7E0FF15
:101A00000346FB73FB7B022B20D0022B69DC002BEF
:101A100002D0012B16D064E05D4B5B6DC3F3402315
:101A2000DBB2002B0AD05A4B1B6BC3F34063DBB213
:101A3000002B03D07B68574A1A6056E07B68564AF1
:101A40001A6052E07B68544A1A604EE0504B5B6863
:101A5000C3F30043DBB2BB614D4B5B68C3F383430D
:101A6000DBB27B624A4B5B68C3F34173DBB2FB6161
:101A7000FB69002B02D17B6A0F2B06D1FB691A018F
:101A80007B6A134401337B6202E07B6A02337B6230
:101A9000BB69002B06D17B6A404A03FB02F27B68DC
:101AA0001A6022E03A4B5B68C3F34043DBB2002B81
:101AB00010D0374B5B6DC3F30133DBB23B623B6A43
:101AC0000233354AB2FBF3F37A6A03FB02F27B6816
:101AD0001A600AE07B6A304A03FB02F27B681A60F4
:101AE00003E07B682C4A1A6000BF294B5B68C3F394
:101AF0000313DBB27B612A4A7B6913441B783B6189
:101B00007B681A683B69DA407B685A60204B5B68E7
:101B1000C3F30223DBB27B61224A7B6913441B7847
:101B20003B617B685A683B69DA407B68DA60184B36
:101B30005B68C3F3C223DBB27B611B4A7B6913443E
:101B40001B783B617B685A683B69DA407B689A6026
:101B50000F4B5B68C3F30073DBB27B617B699B0057
:101B60000B4A5268C2F38132D2B213437B610F4AEF
:101B70007B6913441B783B617B689A683B69B2FBC5
:101B8000F3F27B681A6100BF2837BD4680BD00BFF5
:101B900000100240006CDC0200127A0000093D00D7
:101BA000BC7F0008CC7F0008D47F0008DC7F0008E1
:101BB00080B483B000AF0346FB71FB79012B05D1E4
:101BC000084A536D43F03003536504E0054A536DF2
:101BD0006FF30513536500BF0C37BD465DF8047BFA
:101BE000704700BF0010024080B483B000AF0346CE
:101BF000FB71074AFB7903F00303D9B2536D61F31C
:101C00000D33536500BF0C37BD465DF8047B70474C
:101C10000010024080B485B000AF78600023FB6004
:101C20007A6813686FF3000313607B6800221A6000
:101C30007B6800225A607B6800229A607B680022E1
:101C4000DA607B68FB60FA6840F2FF431340B3F54B
:101C5000816F11D2174B5B68FA68D2B2083A164905
:101C6000A1FB0212120992000F2101FA02F21146A1
:101C7000104A0B43536017E0FA6840F2FF431340E9
:101C8000B3F5916F10D20D4B5B68FA68D2B2083A87
:101C90000949A1FB0212120992000F2101FA02F276
:101CA0001146064A0B43536000BF1437BD465DF82A
:101CB000047B704700000240CDCCCCCC0004024035
:101CC00080B483B000AF78600B46FB70FB7803F004
:101CD0000103D9B27A68136861F30003136000BF8F
:101CE0000C37BD465DF8047B7047000080B485B0BA
:101CF00000AF78600023FB730023BB607B68B3F107
:101D0000805F03D90B4B1B68BB6002E00A4B1B686A
:101D1000BB60BA687B681340002B02D00123FB73C1
:101D200001E00023FB73FB7B18461437BD465DF8CA
:101D3000047B7047000402400000024080B483B07E
:101D400000AF78607B68B3F1805F05D9074A7B6894
:101D500023F07043536002E0054A7B68536000BF84
:101D60000C37BD465DF8047B704700BF000402409D
:101D70000000024080B483B000AF78607B6800222E
:101D80001A607B6800225A607B6800221A817B6897
:101D900000225A817B6800221A737B6800225A73E2
:101DA0007B6800229A737B680022DA737B680022CA
:101DB0001A747B6800225A7400BF0C37BD465DF868
:101DC000047B704780B483B000AF786039607B6873
:101DD0001A684BF6EF7313407A6813607B681B68D0
:101DE0003A6812891A437B681A603B685B7C03F08F
:101DF0000303D9B27A68136861F30D3313603B684B
:101E0000DB7B03F00303D9B27A68136861F38B2399
:101E100013603B689B7B03F00303D9B27A681368B5
:101E200061F3092313603B685B7B03F00103D9B2C4
:101E30007A68136861F3C71313603B681B7B03F078
:101E40000103D9B27A68136861F3861313603B68A3
:101E50001B7C03F00103D9B27A68136861F3451360
:101E600013603B685B891A467B685A603B681A6856
:101E70007B689A603B685A687B68DA6000BF0C3701
:101E8000BD465DF8047B704780B483B000AF7860D6
:101E90000B4B1A697B6813407A689A4206D1084A4C
:101EA0007B685361064A7B68536102E0044A7B68A1
:101EB000536100BF0C37BD465DF8047B704700BF1F
:101EC0000004014080B485B000AF786039603B68A1
:101ED0001B683B813B689B79032B02D100237B81EC
:101EE00030E03B689B79002B15D13B685B799BB256
:101EF00003F00F037B813B685B79182B03D13A8990
:101F00007B681A611EE03B685B79282B1AD13A89FD
:101F10007B685A6116E03B689B791BB203F00803AB
:101F20001AB23B681B791BB203F004031BB21343C4
:101F30001AB23B68DB791BB203F003031BB21343F5
:101F40001BB27B813B89DBB2002B25D00023FB60D9
:101F50001FE03A89FB6842FA03F303F00103002B08
:101F600014D07B681B68FA6892000F2101FA02F214
:101F7000D2431A407B681A607B681B687989FA68CB
:101F8000920001FA02F21A437B681A60FB6801337F
:101F9000FB60FB68072BDCD93B89FF2B28D93B89E9
:101FA0001B0A3B810023FB601FE03A89FB6842FA71
:101FB00003F303F00103002B14D07B685B68FA681D
:101FC00092000F2101FA02F2D2431A407B685A6054
:101FD0007B685B687989FA68920001FA02F21A4319
:101FE0007B685A60FB680133FB60FB68072BDCD918
:101FF00000BF1437BD465DF8047B704780B483B0E2
:1020000000AF78607B684FF6FF721A607B68002231
:102010009A717B6800221A717B6804225A717B686E
:102020000122DA7100BF0C37BD465DF8047B7047B2
:1020300080B485B000AF78600B467B800023FB73D3
:102040007A8879887B689B680B409A4202D000238B
:10205000FB7301E00123FB73FB7B18461437BD467D
:102060005DF8047B704780B483B000AF78600B46A6
:102070007B807A887B681A6100BF0C37BD465DF8AB
:10208000047B704780B487B000AF78600B46FB706C
:102090007B681B0E03F1804303F580337B617B6813
:1020A0001B0CFB747B681B0ABB747B687B74BB7C5A
:1020B000C3F12002FB7CD31A4FF0FF3202FA03F384
:1020C000FB60BB7CC3F12002FB7CD31AFA6822FAC6
:1020D00003F3FB60FB7CFA6822FA03F3FB60FB7CF2
:1020E000FA6802FA03F3FB607B691968FB68DA435C
:1020F0007B690A401A60FB78002B09D07B691A685B
:10210000797CFB7C01FA03F319467B690A431A6068
:1021100000BF1C37BD465DF8047B704780B485B0B6
:1021200000AF78607B6803F00703FB600C4BDB6853
:10213000BB60BA684FF6FF031340BB60FB681A022E
:10214000BB68134343F0BF6343F40033BB60044AEE
:10215000BB68D36000BF1437BD465DF8047B704791
:1021600000ED00E080B582B000AF0346FB71FB7963
:102170001846FFF7D3FF00BF0837BD4680BD0000FB
:1021800080B483B000AF0346FB71FB79042B06D10A
:10219000094B1B68084A43F00403136005E0064B33
:1021A0001B68054A23F00403136000BF0C37BD46CB
:1021B0005DF8047B704700BF10E000E080B58CB094
:1021C00000AFF860B96011461A460B46FB71134622
:1021D000BB7107F114031846FFF700FCFB682A4A9D
:1021E00093420BD0FB68294A934207D0FB68284AE8
:1021F000934203D0FB68274A934202D1FB69FB62FA
:1022000001E03B6AFB62FA6A13469B0013445B00E1
:102210001A46BB68B2FBF3F3BB62B96A1E4BA3FB61
:102220000123DA0813469B0013445B00CA1A042AF0
:1022300006D8BB6A184AA2FB0323DB08BB6206E090
:10224000BB6A154AA2FB0323DB080133BB62BB6AEE
:1022500099B2FA68936861F30F039360FB7903F016
:102260000103D9B2FA68D36861F30C33D360BB7948
:1022700003F00303D9B2FA68136961F30D331361F4
:1022800000BF3037BD4680BD0038014000600140CE
:102290000064014000680140CDCCCCCC80B483B058
:1022A00000AF78600B46FB70FB7803F00103D9B2F6
:1022B0007A68D36861F34D33D36000BF0C37BD46F5
:1022C0005DF8047B704780B483B000AF78600B4644
:1022D000FB70FB7803F00103D9B27A68D36861F32D
:1022E000C303D36000BF0C37BD465DF8047B704765
:1022F00080B483B000AF78600B467B807B88C3F3EB
:1023000008027B685A6000BF0C37BD465DF8047B4D
:10231000704780B483B000AF786039607B681A681A
:102320003B681340002B01D0012300E00023184636
:102330000C37BD465DF8047B704780B483B000AFB6
:1023400078607B685A787B689B781343DAB27B6845
:10235000DB781343DBB21A467B689B8813437A68A9
:10236000D28813437A68128913437A6852891343D7
:102370007A68928913437A68D28913437A68128AF9
:1023800013437A68528A1A437B685B694FF0204096
:1023900079680978134340F831307B689B78082BC3
:1023A0000AD14FF020427B681B78194652F8313031
:1023B00043F0400342F8313000BF0C37BD465DF8B2
:1023C000047B704780B483B000AF786039607B686D
:1023D0005A687B689B681B011A437B68DB681B0299
:1023E0001A437B681B691B041A437B685B691B05E6
:1023F0001A437B689B691B061A437B68DB694FF0B5
:102400002040796809781A43CB0003445A607B68FE
:102410005B88B3F5804F22D13B685A683B689B6864
:102420001B011A433B68DB681B021A433B681B69AC
:102430001B041A433B685B691B051A433B689B6995
:102440001B061A433B68DB694FF020403968097866
:102450001A4301F12003DB0003445A6009E04FF006
:1024600020423B681B782033DB0013446FF070423E
:102470005A6000BF0C37BD465DF8047B704780B4DE
:1024800083B000AF78607B6800221A707B680222FC
:102490005A707B6800229A707B680022DA707B6831
:1024A00000229A807B680022DA807B6800221A81F1
:1024B0007B6800225A817B6800229A817B684FF4F6
:1024C0008052DA817B684FF400521A827B680022C6
:1024D0005A827B6800225A6100BF0C37BD465DF806
:1024E000047B704780B483B000AF786039607B684C
:1024F00000221A707B6800225A807B680F225A6083
:102500007B680F229A607B68FF22DA607B680F226B
:102510001A617B680F225A617B680F229A617B687F
:102520000022DA613B6800221A703B6800225A8060
:102530003B680F225A603B680F229A603B68FF227B
:10254000DA603B680F221A613B680F225A613B68D0
:102550000F229A613B680022DA6100BF0C37BD464A
:102560005DF8047B704780B483B000AF03460A4631
:10257000FB711346BB714FF02041FA79BB7903F030
:102580000103D8B251F8323060F3000341F8323021
:1025900000BF0C37BD465DF8047B704780B483B044
:1025A00000AF0346FB710B46BB8013467B804FF0A8
:1025B0002041FB79DBB27A88D0B203F1880251F86E
:1025C000223060F30F2341F822304FF02041FB7995
:1025D000DBB2BA88D0B203F1880251F8223060F33E
:1025E000070341F8223000BF0C37BD465DF8047B7D
:1025F0007047000080B598B000AF07F15803002283
:102600001A605A600121A648FFF741F80121A54848
:10261000FFF73DF80121A448FFF739F80121A3484D
:10262000FFF735F80121A248FFF731F801214FF4F7
:10263000C010FFF72CF801219E48FFF728F8012170
:102640009D48FFF71FFD3C23BB65082387F85E30DC
:10265000002387F85C30042387F85D30012387F876
:102660005F3007F1580319469448FFF72BFC4FF4ED
:10267000A043BB65082387F85E30002387F85C30F1
:10268000042387F85D30012387F85F3007F1580392
:1026900019468B48FFF716FC4FF4C253BB6508235D
:1026A00087F85E30002387F85C30042387F85D30BC
:1026B000012387F85F3007F1580319468148FFF777
:1026C00001FC4FF47843BB65082387F85E30002394
:1026D00087F85C30042387F85D30012387F85F308A
:1026E00007F1580319467848FFF7ECFB4FF4C06335
:1026F000BB65082387F85E30002387F85C3004232D
:1027000087F85D30012387F85F3007F158031946D9
:102710006E48FFF7D7FB0123BB65102387F85E30B7
:10272000002387F85C30042387F85D30012387F8A5
:102730005F3007F1580319466148FFF7C3FB0823D0
:10274000BB65102387F85E30002387F85C300423D4
:1027500087F85D30012387F85F3007F15803194689
:102760005A48FFF7AFFB2023BB65082387F85E308C
:10277000002387F85C30042387F85D30012387F855
:102780005F3007F1580319464E48FFF79BFB40F6B0
:102790008403BB65082387F85E30002387F85C302C
:1027A000042387F85D30012387F85F3007F1580371
:1027B00019464648FFF786FB07F140031846FFF726
:1027C0005EFE002387F84030002387F84130002365
:1027D00087F84230102387F843300023A7F84430AD
:1027E0000023A7F846300023A7F848300023A7F8B5
:1027F0004A300023A7F84C304FF48053A7F84E30EE
:102800000023A7F850304FF48043A7F8523000233C
:102810007B6507F140031846FFF78FFD3A4607F145
:10282000200311461846FFF75DFE002387F820308D
:102830004FF480437B8402237B620023BB6202232C
:10284000FB6200233B6300237B630023BB63002305
:10285000FB6300233B704FF480437B8002237B604B
:102860000023BB600223FB6000233B6100237B61EC
:102870000023BB610023FB613A4607F120031146A8
:102880001846FFF79FFD082208210020FFF786FE6B
:1028900001210020FFF767FE00BF6037BD4680BD05
:1028A00002001800030018000400180005001800BA
:1028B0000600180008001400010318300008014049
:1028C000000C0140001001400018014000140140BC
:1028D00098B500AFC14B1B685B6898470821C0489A
:1028E000FFF7C1FB322000F04FFD002000F07CF923
:1028F000052000F049FDB94B1C6800F095F903462E
:102900002380D32000F070F9B44B1C6800F08CF9E0
:1029100003462380B14B1C6800F086F903462380F0
:10292000AE4B1C6800F080F903462380AB4B1C685B
:1029300000F07AF903462380A84B1B681A88A74B3E
:102940001B68120292B21A8000F06EF90346194613
:10295000A24B1B681A88A14B1B680A4392B21A80CB
:10296000CF2000F041F9002000F04EF9C12000F026
:102970004BF9302000F048F9ED2000F035F96420E3
:1029800000F042F9032000F03FF9122000F03CF97A
:10299000812000F039F9E82000F026F9852000F0C8
:1029A00033F9102000F030F97A2000F02DF9CB2017
:1029B00000F01AF9392000F027F92C2000F024F952
:1029C000002000F021F9342000F01EF9022000F070
:1029D0001BF9F72000F008F9202000F015F9EA2093
:1029E00000F002F9002000F00FF9002000F00CF9CF
:1029F000C02000F0F9F81B2000F006F9C12000F01B
:102A0000F3F8012000F000F9C52000F0EDF83020C7
:102A100000F0FAF8302000F0F7F8C72000F0E4F8F2
:102A2000B72000F0F1F8362000F0DEF8482000F082
:102A3000EBF83A2000F0D8F8552000F0E5F8B12086
:102A400000F0D2F8002000F0DFF81A2000F0DCF8E7
:102A5000B62000F0C9F80A2000F0D6F8A22000F055
:102A6000D3F8F22000F0C0F8002000F0CDF82620C6
:102A700000F0BAF8012000F0C7F8E02000F0B4F848
:102A80000F2000F0C1F82A2000F0BEF8282000F046
:102A9000BBF8082000F0B8F80E2000F0B5F80820C8
:102AA00000F0B2F8542000F0AFF8A92000F0ACF824
:102AB000432000F0A9F80A2000F0A6F80F2000F04B
:102AC000A3F8002000F0A0F8002000F09DF80020FE
:102AD00000F09AF8002000F097F8E12000F084F868
:102AE000002000F091F8152000F08EF8172000F07B
:102AF0008BF8072000F088F8112000F085F80620F8
:102B000000F082F82B2000F07FF8562000F07CF8CF
:102B10003C2000F079F8052000F076F8102000F055
:102B200073F80F2000F070F83F2000F06DF83F20A0
:102B300000F06AF80F2000F067F82B2000F054F83E
:102B4000002000F061F8002000F05EF8012000F0A5
:102B50005BF83F2000F058F82A2000F045F80020EC
:102B600000F052F8002000F04FF8002000F04CF880
:102B7000EF2000F049F8112000F036F8782000F03E
:102B800003FC292000F030F8362000F02DF8082052
:102B900000F03AF82A2000F027F8002000F034F87E
:102BA000002000F031F8002000F02EF8EF2000F0B7
:102BB0002BF82B2000F018F8002000F025F800205A
:102BC00000F022F8012000F01FF83F2000F01CF870
:102BD00001210448FFF747FA00BF98BD5C060020BA
:102BE00000140140000C014080B483B000AF0346E4
:102BF000FB80044AFB88138000BF0C37BD465DF89C
:102C0000047B7047FEFF016080B483B000AF0346D1
:102C1000FB80044AFB88138000BF0C37BD465DF87B
:102C2000047B70470000026080B483B000AF054BA6
:102C30001B88FB80FB8818460C37BD465DF8047B7B
:102C4000704700BF0000026090B583B000AF04463B
:102C5000084611461A462346FB800346BB800B46B6
:102C60007B8013463B802A20FFF7BEFFFB881B0AB0
:102C70009BB21846FFF7C8FFFB881846FFF7C4FF52
:102C80007B881B0A9BB21846FFF7BEFF7B8818465D
:102C9000FFF7BAFF2B20FFF7A7FFBB881B0A9BB2E9
:102CA0001846FFF7B1FFBB881846FFF7ADFF3B881A
:102CB0001B0A9BB21846FFF7A7FF3B881846FFF791
:102CC000A3FF2C20FFF790FF00BF0C37BD4690BD3F
:102CD00080B582B000AF0346FB80FB881846FFF743
:102CE00093FF00BF0837BD4680BD000090B583B09C
:102CF00000AF0346FB800B46BB8013467B80084B2E
:102D00001B68DC68BB88FA88B988F888A0477B888C
:102D10001846FFF7DDFF00BF0C37BD4690BD00BF72
:102D20005C06002090B585B000AF0346FB800E4BDB
:102D30001B68DC684FF4A073F02200210020A0473C
:102D40000023FB6006E0FB881846FFF7C1FFFB6825
:102D50000133FB60FB68B3F5963FF4D300BF00BFBF
:102D60001437BD4690BD00BF5C06002090B589B009
:102D700000AF0446084611461A462346FB71034637
:102D8000BB800B467B8013463B80BB88DBB2DB00FD
:102D9000FB757B88DBB2DB00BB75FB79DB002F4A60
:102DA00013443B610023FB610023BB61FB7D98B2B0
:102DB000BB7D99B2FB7D9BB207339AB2BB7D9BB2C0
:102DC00007339BB2FFF740FF0023BB613EE00023C7
:102DD000FB6135E03A69BB6913441B781A46FB690D
:102DE000013342FA03F3DBB203F00103FB73FB7B15
:102DF000012B11D1FB7D9AB2BB699BB2134498B2EF
:102E0000BB7D9AB2FB699BB213449BB24FF47842EC
:102E10001946FFF76BFF10E0FB7D9AB2BB699BB2CE
:102E2000134498B2BB7D9AB2FB699BB213449BB228
:102E30004FF4FC621946FFF759FFFB690133FB6150
:102E4000FB69072BC6D9BB690133BB61BB69072B83
:102E5000BDD900BF00BF2437BD4690BD040000208F
:102E600080B586B000AFF860084611461A460346A2
:102E70007B810B463B811346FB800023FB823B8911
:102E8000BB827B897B820023FB820DE0FB8AFA6890
:102E900013441878B98A4B1CBB82FB887A8AFFF7E7
:102EA00065FFFB8A0133FB82FB8AFA6813441B78B7
:102EB000002BEBD100BF00BF1837BD4680BD00001E
:102EC00090B589B000AF0446084611461A4623461D
:102ED000FB800346BB800B467B8013463B80FB8810
:102EE0001946194801F05EF9FA8807F108031749F5
:102EF000184601F0EBF907F108031846FDF75EFDEF
:102F00000346BB83BB8B07F108021946104801F04A
:102F100049F90023FB830EE0FB8B20333B4413F87D
:102F2000180C79884B1C7B803B88BA88FFF71EFF02
:102F3000FB8B0133FB83FA8BBB8B9A42ECD300BF34
:102F400000BF2437BD4690BDE47F0008F47F000831
:102F5000F87F0008002103E00B4B5B58435004311D
:102F60000A480B4B42189A42F6D30A4A02E0002361
:102F700042F8043B084B9A42F9D300F011F800F0F4
:102F80006BFAFEF70DF8704744850008000000203A
:102F900020060020200600207C060020FEE700001E
:102FA00080B400AF1E4BD3F888301D4A43F4700341
:102FB000C2F888301B4A136843F00103136000BF56
:102FC000184B1B68C3F34003DBB2012BF8D1154A41
:102FD00053686FF30103536000BF124B5B68C3F388
:102FE0008103DBB2002BF8D10E4B1B680D4A23F096
:102FF000867323F4803313600A4B00225A60094B16
:1030000000221A63074B4FF41F029A60044B4FF0E3
:1030100000629A6000BFBD465DF8047B704700BF48
:1030200000ED00E00010024080B588B000AF002342
:10303000BB610023FB6100237B6100233B61002314
:10304000FB600023BB60FEF7BBFC0346FB71FB7912
:10305000022B20D0022B69DC002B02D0012B16D0D2
:1030600064E03F4B5B6DC3F34023DBB2002B0AD01F
:103070003B4B1B6BC3F34063DBB2002B03D0394BDC
:10308000394A1A6056E0374B384A1A6052E0354BDD
:10309000364A1A604EE0324B5B68C3F30043DBB242
:1030A0003B612F4B5B68C3F38343DBB2FB612C4B6B
:1030B0005B68C3F34173DBB27B617B69002B02D198
:1030C000FB690F2B06D17B691A01FB69134401339D
:1030D000FB6102E0FB690233FB613B69002B06D117
:1030E000FB69234A02FB03F31E4A136022E01C4BD8
:1030F0005B68C3F34043DBB2002B10D0184B5B6D11
:10310000C3F30133DBB2BB61BB690233174AB2FBC5
:10311000F3F3FA6902FB03F3124A13600AE0FB6956
:10312000124A02FB03F30F4A136003E00D4B0F4AF0
:103130001A6000BF0A4B5B68C3F30313DBB2FB608A
:103140000C4AFB6813441B78BB60064B1A68BB68CB
:1031500022FA03F3034A136000BF2037BD4680BD47
:103160000010024024040020006CDC0200127A00EF
:1031700000093D001C80000880B586B000AFF860F3
:10318000B9607A6000237B611BE000BF8021114899
:10319000FFF7BFF80346002BF8D0BB685A1CBA6093
:1031A0001B789BB219460B48FFF7A2F800BF4021DD
:1031B0000848FFF7AEF80346002BF8D07B690133CF
:1031C0007B617A697B689A42DFDB7B681846183737
:1031D000BD4680BD0038014080B500AF00F0B4F8B6
:1031E000002000F035F8012000F032F8022000F055
:1031F0002FF8002000F084F8012000F081F8022070
:1032000000F07EF800F002F800BF80BD80B582B00B
:1032100000AF01210C48FEF73AFA3B461846FEF78C
:10322000EDFE0123FB7100233B710023BB710123E1
:103230003B6028237B713B4619460448FEF742FE5B
:1032400000BF0837BD4680BD0200180000080140DD
:1032500080B584B000AF0346FB71FB79134A52F886
:10326000233001211846FEF712FA07F10803184629
:10327000FEF7C4FE0123FB7300233B731023BB73D3
:10328000FB790B4A32F81330BB6004237B73FB7964
:10329000084A52F8233007F1080211461846FEF793
:1032A00011FE00BF1037BD4680BD00BF3C040020AA
:1032B000340400202804002080B483B000AF03460B
:1032C000FB71FB79022B10D8FB790B4A32F81330D3
:1032D000002B0BD0FB79084A32F81310FB79074A10
:1032E00052F823300A465A6100E000BF0C37BD4651
:1032F0005DF8047B704700BF3404002028040020E0
:1033000080B483B000AF0346FB71FB79022B10D869
:10331000FB790B4A32F81330002B0BD0FB79084AAB
:1033200032F81310FB79074A52F823300A461A6123
:1033300000E000BF0C37BD465DF8047B704700BF5E
:10334000340400202804002080B500AF0420FEF7DC
:1033500017FF094B1B68094AA2FB03239B0C084A71
:103360001360074B1B684FF47A7202FB03F3054AA4
:10337000136000BF80BD00BF2404002083DE1B4318
:10338000600600206406002080B485B000AF0346CC
:10339000FB800023FB6035E0FB88322B0AD91E4BF3
:1033A0001B681E4A322101FB03F35360FB88323B4A
:1033B000FB8008E0FB88184A1268184902FB03F3F7
:1033C0004B600023FB80154B00229A60134B1B6857
:1033D000124A43F001031360104B1B68FB60FB684B
:1033E00003F00103002B04D0FB6803F48033002BAF
:1033F000F2D00A4B1B68094A23F001031360074B04
:1034000000229A60FB88002BC6D100BF00BF143792
:10341000BD465DF8047B70476406002010E000E0C4
:1034200080B584B000AF0346FB800023FB810AE037
:103430004FF4FA70FFF7A8FF4FF4FA70FFF7A4FFFC
:10344000FB890133FB81FA89FB889A42F0D300BFE4
:1034500000BF1037BD4680BD70B50D4D0D4C641BCF
:10346000A4100026A64209D10B4D0C4C04F06AFDB5
:10347000641BA4100026A64205D170BD55F8043B7C
:1034800098470136EEE755F8043B98470136F2E7D6
:103490003C8500083C8500083C8500084085000804
:1034A00002440346934200D1704703F8011BF9E739
:1034B0002DE9FF4755EC104B002D0E4619462B46C3
:1034C000BBBF05F100431D4600232D230B700D9B50
:1034D000DDF830A0914623F02008BCBF22461446F8
:1034E000B8F1460F05D0B8F1450F00D101360221E1
:1034F00000E0032103AB019302AB009345EC104BBA
:103500005346324601F0FCFEB8F1470F074602D1A0
:1035100019F0010F22D0B8F1460F07EB060910D1C0
:103520003B78302B0AD10022002320462946FDF7A4
:10353000F5FA18B9C6F10106CAF80060DAF80030E9
:1035400099440022002320462946FDF7E7FA08B1F6
:10355000CDF80C903022039B4B4507D3039B0E9A6A
:10356000DB1B3846136004B0BDE8F087591C03919B
:103570001A70F0E7F7B503460029B8BF494203F8CF
:10358000022BB4BF2D222B22092942702ADD0DF116
:103590000704A4460A27A6460A4691FBF7F607FB4E
:1035A00016153035632A04F1FF340EF8015C3146FC
:1035B000F1DC3031AEF1020504F8011C441C29464F
:1035C00061450AD30DF10902A2EB0E02654588BFE1
:1035D00000221344181A03B0F0BD11F8012B04F8AF
:1035E000012FEDE7302330318370C170031DF1E707
:1035F0002DE9F04F2DED028B8DB00C46DDF860808B
:1036000016461F46054603F095F9D0F800A050462F
:10361000FDF7D4F900230A9323680593D8F8003006
:1036200094F818B0073323F0070303F10802C8F831
:103630000020D3E90023C4E91223D4E9128929F038
:1036400000430793CDF8188008EE100A9F4BDDE980
:1036500006014FF0FF32FDF793FA88BBDDE9060162
:103660009A4B4FF0FF32FDF76DFA48BB0022002362
:1036700040464946FDF75CFA10B12D2384F84330EB
:10368000934B9448BBF1470F94BF98468046032361
:103690002361059B23F0040222604FF0000900978C
:1036A00033460BAA2146284600F0D8F9013040F0F5
:1036B00090804FF0FF300DB0BDEC028BBDE8F08F75
:1036C00042464B4640464946FDF75AFA40B14B4602
:1036D000002BBCBF2D2384F843307F487F4BD1E7BC
:1036E00063680BF0DF0206925A1C3FD10623636029
:1036F000059B616843F48062002303930AABCDE924
:1037000001B309AB49EC108B009322600DF1230348
:103710002846FFF7CDFE069B0999472B804608D126
:10372000C81C02DB6368994241DDABF1020B5FFA12
:103730008BFBBBF1650F20D801395A4604F15000CC
:103740000991FFF717FF0A9A1318012A814623618E
:1037500002DC2268D20701D5013323619DF82330B2
:10376000002B9CD02D2384F8433098E7069A472AF3
:10377000BED1002BBCD10123B9E7BBF1660F18D134
:10378000002963680BDD216113B92268D00702D5D7
:1037900001330B442361A1654FF00009DEE713B943
:1037A0002268D20701D50233F4E70123F2E74FF094
:1037B000670B0A9B994205DB23682161D807EAD58C
:1037C0004B1CE7E70029D4BFC1F1020201221344D8
:1037D000E0E723685A0507D4236942463146284664
:1037E000B84701302CD164E7BBF1650F40F2E080AF
:1037F000D4E9120100220023FDF790F9002834D00B
:10380000374A012331462846B84701303FF451AFCB
:10381000DDE909239A4202DB2368D80710D518EEA8
:10382000103A524631462846B84701303FF441AF7E
:103830004FF0000804F11A090A9B013B434509DCDB
:1038400023689B0700F10581E0680B9B9842B8BF95
:10385000184630E701234A4631462846B84701302A
:103860003FF427AF08F10108E6E7099B002B39DC9C
:103870001B4A012331462846B84701303FF419AFAF
:10388000DDE90923134302D12368D907D8D518EEFF
:10389000103A524631462846B84701303FF409AF46
:1038A0004FF0000904F11A0A099B5B424B4501DC09
:1038B0000A9B92E70123524631462846B847013019
:1038C0003FF4F7AE09F10109EEE700BFFFFFEF7F1C
:1038D00030800008348000083C80000838800008F0
:1038E000408000080A9AA36D9A42A8BF1A46002A8F
:1038F000914637DC4FF0000B29EAE97904F11A020E
:10390000A36D0593A3EB09035B4533DCDDE90923D4
:103910009A423BDB2368DA0738D40A9B059A099957
:103920009A1AA3EB01099145A8BF9146B9F1000F7E
:1039300035DC4FF0000829EAE97904F11A0ADDE9DB
:1039400009239B1AA3EB090343457FF779AF0123B2
:10395000524631462846B84701303FF4AAAE08F136
:103960000108ECE71346314642462846B847013085
:10397000C0D19EE60123314628460592B847013062
:103980003FF497AE059A0BF1010BB9E718EE103A28
:10399000524631462846B8470130BED189E6059ADD
:1039A0004B46424431462846B8470130C1D180E6F3
:1039B0000A9A012A01DCDB0738D501234246314649
:1039C0002846B84701303FF474AE18EE103A52461C
:1039D00031462846B84701303FF46BAED4E91201B6
:1039E00000220023FDF79AF8D8B90A9B08F10102DA
:1039F000013B31462846B84701300ED159E6012334
:103A0000524631462846B84701303FF452AE08F1DD
:103A100001080A9B013B4345F1DC4B4604F150028F
:103A2000DCE64FF0000804F11A0AF2E701234246EF
:103A3000DFE701234A4631462846B84701303FF4C4
:103A400038AE08F10108E3680B995B1A4345F0DCD6
:103A5000FAE64FF0000804F11909F4E72DE9F04700
:103A6000164699468A680B69DDF820809342B8BFF4
:103A70001346336091F8432007460C460AB10133E0
:103A800033602368990642BF336802333360256888
:103A900015F0060506D104F1190AE36832689B1A8D
:103AA000AB4226DC94F84320131E226818BF012382
:103AB00092062BD404F1430249463846C0470130F0
:103AC0001ED02368E568326803F00603042B08BFA4
:103AD000AD1AA36822690CBF25EAE575002593425B
:103AE000C4BF9B1AED1800261A34B5421AD1002023
:103AF00008E00123524649463846C047013003D109
:103B00004FF0FF30BDE8F0870135C6E7E1185A1CD9
:103B1000302081F84300224494F8451082F8431085
:103B20000233C7E70123224649463846C0470130E1
:103B3000E6D00136D9E700002DE9FF470F7E0C9D46
:103B4000782F914680460C469A4601F1430207D8E9
:103B5000622F0AD8002F00F0D880582F00F0A380E1
:103B600004F1420584F842703AE0A7F16303152B93
:103B7000F6D801A151F823F0D13B0008E53B00083D
:103B8000613B0008613B0008613B0008613B0008A5
:103B9000E53B0008613B0008613B0008613B000811
:103BA000613B0008F13C0008153C0008D33C0008CC
:103BB000613B0008613B0008133D0008613B0008C1
:103BC000153C0008613B0008613B0008DB3C000835
:103BD0002B681A1D1B682A6004F1420584F84230E4
:103BE0000123A3E020682968060601F104030AD531
:103BF0000E682B60002E03DA2D23764284F84330C2
:103C00005E480A2319E00E682B6010F0400F18BFC1
:103C100036B2EFE72B682068191D2960010601D52F
:103C20001E6802E04606FBD51E8854486F2F0CBF65
:103C300008230A23002184F843106568A560002D3D
:103C4000A2BF216821F0040121600EB9002D4DD0E2
:103C50001546B6FBF3F103FB1167C75D05F8017D5F
:103C60003746BB420E46F4D9082B0BD12368DE073A
:103C700008D5236961689942DEBF302305F8013C0D
:103C800005F1FF35521B2261CDF800A04B4603AA77
:103C900021464046FFF7E2FE01304CD14FF0FF30A5
:103CA00004B0BDE8F087354881F84570296823687D
:103CB00051F8046B29601D0614D5DF0744BF43F09B
:103CC000200323601EB9236823F020032360102300
:103CD000B0E7236843F0200323607823284884F862
:103CE0004530E3E7590648BFB6B2E6E71546BBE7FD
:103CF0002B6826686169181D286035061B6801D588
:103D0000196002E07006FBD5198000232361154677
:103D1000BAE72B681A1D2A601D68626800212846D0
:103D2000FCF756FE08B1401B606063682361002306
:103D300084F84330A8E723692A4649464046D047DD
:103D40000130ABD023689B0713D4E068039B9842F3
:103D5000B8BF1846A4E70123324649464046D0473B
:103D600001309BD00135E36803995B1AAB42F2DC6A
:103D7000EBE7002504F11906F5E700BF42800008D3
:103D8000538000082DE9F04F87B0174603938B68E6
:103D90005A1EB2F5AE7F83BF6FF4AE755B19029306
:103DA000002386BF40F25D138B6002930B688B4645
:103DB000002543F4F0634BF81C3BCDE904558046E5
:103DC0000C465E46AA46A9460195A26852B13B68D8
:103DD0001B784E2B64D8402B3CD8A3F12B01C8B2E2
:103DE0000E283AD9B9F1000F03D0236823F4807369
:103DF00023600AF1FF3ABAF1010F00F213815E4528
:103E000000F205810125284607B0BDE8F08FA3F137
:103E100061020D2AE6D801A151F822F05B3F0008AB
:103E2000E53D0008E53D0008E53D0008BB3F000812
:103E3000933F0008E53D0008E53D0008693F0008A4
:103E4000E53D0008E53D0008E53D0008E53D0008CA
:103E5000213F0008A3F14102DBE70E29C2D801A0EF
:103E600050F821F0133F0008E53D0008133F00081B
:103E7000A73F0008E53D0008C13E0008FD3E0008E0
:103E8000FD3E0008FD3E0008FD3E0008FD3E000826
:103E9000FD3E0008FD3E0008FD3E0008FD3E000816
:103EA0006E2B09D8602BB2D8542B77D0592B99D1CF
:103EB000072D97D1082529E0742B6FD0792BF6E7D1
:103EC0002168C8051AD5029B21F08001216009F103
:103ED00001091BB1013B01320293A260A368013BBF
:103EE000A3602369013323617B68013B002B7B6066
:103EF00040F384803B6801333B6066E71AEB050FB3
:103F00007FF470AF226822F4C072226006F8013B91
:103F1000E4E7226810067FF565AF22F08002F4E73F
:103F2000BAF1000F0ED1B9F1000F0ED1226802F4E0
:103F3000E061B1F5E06F08D122F4F06222604FF049
:103F4000010AE3E7BAF1020F55D0012D02D0042D8A
:103F50007FF448AF0135EDB2D8E7BAF1010F7FF435
:103F600041AF4FF0020AD1E77DB9B9F1000F7FF4FC
:103F70003CAF226802F4E061B1F5E06F7FF439AF45
:103F800022F4F06222600125C0E7032DE2D0052D66
:103F9000DEE7022D7FF426AF0325B7E7062D7FF479
:103FA00021AF0725B2E7226891057FF51BAF22F408
:103FB00020722260CDF80490A8E7226802F4A06184
:103FC000B1F5806F06D050057FF50CAFB9F1000F49
:103FD0003FF40FAF910558BF019922F4F06258BF2A
:103FE000A9EB010142F4C07258BFCDE9041622606A
:103FF0004FF000098AE74FF0030A87E7D4F88031D1
:1040000039464046984700283FF4DFAEEAE6D4F848
:104010007C3116F8011D3A46404698472369013B1A
:104020002361ECE66B1E062B25D8022D36D85E45A3
:104030007FF6E8AED4F87C3116F8011D3A464046CA
:1040400098472369013B2361F1E70298D4F87C315A
:1040500010F8011D02903A46404698472369013BFB
:1040600023610AF1FF3A5FFA8AFABAF1020FECD142
:10407000033DEDB2761B2368DA052FD55B0510D51D
:104080005E457FF6BFAED4F87C3116F8011D3A4686
:10409000404698472369013B2361F1E7AA4602960F
:1040A000DFE716F8011C2369652903F1FF3306F1E8
:1040B000FF3523610CD045290AD0D4F87C313A462B
:1040C00040469847236916F8021C013BB51E236140
:1040D000D4F87C313A46404698472E46256815F07C
:1040E000100559D13570236803F4C063B3F5806FB0
:1040F0001BD1019B4B45A3EB090223D1002259465A
:10410000404600F027FF2268039B12F0020F57EC95
:10411000106B1B6821D003991A1D0A601B68C3E944
:104120000067E3680133E3606DE6049B002BE5D094
:1041300005990A232A460131404600F093FF049B6B
:10414000059EC21A04F26F139E4228BF04F5B7768B
:104150001249304600F0BAF8D0E7039912F0040F84
:1041600003F104020A60D9D1D3F8008010EE102ABE
:1041700010EE100A3B463946FCF702FD28B108480C
:1041800000F09EF888ED000ACBE730463946FCF790
:104190002DFDC8F80000C4E7002534E6648000085F
:1041A000388500080FB40A4B13B51C6824B1A36905
:1041B00013B9204601F0B2FF05AB049AA168019340
:1041C000204603F089FB02B0BDE8104004B0704700
:1041D0004C04002070B50E46054618B183690BB932
:1041E00001F09CFFAB69AC6813B9284601F096FF5B
:1041F0002C4B9C4220D16C68636EDB0705D4A389ED
:10420000980502D4A06D02F09AFBA38919071DD569
:104210002369DBB1013EA36816F8011F013BA360CF
:1042200039BB002B38DA22460A21284600F01CFF51
:10423000013011D00A2511E01B4B9C4201D1AC6822
:10424000DAE71A4B9C4208BFEC68D5E721462846BE
:1042500000F05CFF0028DDD04FF0FF35636EDA0719
:1042600005D4A3899B0502D4A06D02F069FB284602
:1042700070BD002B04DAA2699A4206DC0A2904D038
:1042800023685A1C22601970C5E72246284600F0B0
:10429000EBFE0130BFD1DFE723680A255A1C2260FC
:1042A0001D70DBE794820008B48200087482000865
:1042B000024B01461868FFF78DBF00BF4C04002079
:1042C0009FED010A704700BF0000C07F0EB400B52B
:1042D0009CB01DAB029006906FF000410948079119
:1042E0000491094953F8042B05910068019302A930
:1042F00003F0C8F9029B00221A701CB05DF804EBB1
:1043000003B070474C0400200802FFFF70B504465C
:104310000D4645EC104B164602F012FF51EC100B07
:104320007EB1C5F30A53C3F16B03002B09DD1B05F6
:1043300003F17F55002405F5401522462B46FCF776
:1043400003F970BD000000002DE9F04F2DED028B48
:104350009DB01F4600231893A24B13921B68059330
:10436000044618468846FCF729FB4FF0000A05462C
:104370004FF0000BCDF85C80179B1A782B2A4ED09B
:104380003BD80D2A34D8082A34D8002A3ED000233E
:104390000A93179E3378302B40F0B080737803F087
:1043A000DF03582B68D10A9B019318AB0297009347
:1043B0008D4A19AB17A9204601F0B4FF10F007078A
:1043C000054605D0062F2CD10136002317960A93F7
:1043D000139B002B40F090850A9BEBB152460BF1EA
:1043E000004343EC102B1DB0BDEC028BBDE8F08FF9
:1043F000202ACCD101331793BEE72D2AC7D1012241
:104400000A925A1C17925B78002BC2D1139BCDF8ED
:104410005C80002B40F06E8552465B46E1E700224F
:10442000EEE7189A3AB135211AA802F094FF1899CC
:10443000204602F053FB013F042F06D8DFE807F0C7
:104440000A0314170A00DDE91AAB2807C0D54BF0A0
:10445000004BBDE7DDE91AA3199A23F4801302F299
:10446000334243EA025BF0E7DFF880B1EDE76FF03B
:10447000004B4FF0FF3AE8E7179B5A1C17925B7806
:10448000302BF9D0002BA3D001234FF00009049367
:10449000179B0893CDF81C904F460A221798067870
:1044A000A6F13003D9B209292AD905992A4603F081
:1044B0009EFB98B3002032463D4605900346652A90
:1044C00001D0452A18D11DB9049A02439ED0002577
:1044D000DDF85C8008F10102179298F801202B2A80
:1044E00075D02D2A7BD04FF0000CA2F130010929A4
:1044F00040F28280CDF85C8000269DE00023C4E776
:10450000082FD8BF079900F10100DABF02FB013381
:10451000079302FB093901371790BFE7179B5A1918
:1045200017925A5D002F37D005903D46A2F1300317
:10453000092B12D90123C2E7179B5A1C17925A78EC
:104540000130302AF8D0A2F13103082B00F2D984CF
:10455000179B0590002008930546303A00F10103AF
:1045600014D00599194405912B4600EB050E0A213C
:10457000734513D12B18082B05F1010505441CDCEC
:1045800007990A2303FB012307930023179A511C61
:10459000179152781846C9E73846D2E7082B04DC51
:1045A000079E4E4307960133E2E703F1010CBCF18D
:1045B000100FD8BF01FB09F9F5E7102DDCBF0A2366
:1045C00003FB0929E1E70023059301237CE74FF072
:1045D000000C08F10202179298F8022085E74FF0CC
:1045E000010CF6E75C8300086C8000080000F07F97
:1045F000179A511C17915278302AF9D0A2F1310143
:1046000008293FF679AFA2F1300E179A0692179A51
:10461000511C17915278A2F13006092E37D9069E07
:10462000891B082944F61F6602DC7645A8BF76463A
:10463000BCF1000F00D07642002D4DD1049901430A
:104640007FF4C6AE002B7FF4E1AE692A27D024DCCC
:10465000492A24D04E2A7FF4D9AE9F4917A802F0E8
:10466000B9F800283FF4D2AE179B1B78282B2DD128
:104670009A491AAA17A802F0C1F8052826D11B9B4F
:10468000DDF868A043F0FF4B4BF4E00BA0E60A21F5
:1046900001FB0E2EAEF1300EB9E76E2ADBE7904932
:1046A00017A802F097F800283FF4B0AE179B8D4989
:1046B000013B17A8179302F08DF810B9179B01332F
:1046C0001793DFF830B24FF0000A81E6864803F016
:1046D00033FA5BEC10AB7BE6059B0798F31A002FCF
:1046E00008BF2F46102D0693A846A8BF4FF010080C
:1046F000FBF7B0FE092D82468B4613DD7B4B03EBA7
:10470000C80353E91223FBF71FFF824648468B4636
:10471000FBF7A0FE02460B4650465946FBF75EFDEE
:1047200082468B460F2D38DC069B002B3FF450AEA3
:1047300024DD162B0BDC6D4901EBC301D1E900012F
:1047400052465B46FBF700FF82468B4640E6069AE0
:10475000C5F12503934220DB644CC5F10F0504EB42
:10476000C50152465B46D1E90001FBF7EDFE069B11
:104770005D1B04EBC504D4E90023E3E7069B163375
:104780000BDB059B9E1B594B03EBC606D6E90023AA
:1047900050465946FCF702F8D6E7069BA5EB0808F9
:1047A0009844B8F1000F74DD18F00F030AD04F4998
:1047B00001EBC30152465B46D1E90001FBF7C4FEA1
:1047C00082468B4638F00F084FD0B8F59A7F22DD2D
:1047D00000252E46079505952223DFF818B12360A2
:1047E0004FF0000A079B002B3FF4F2AD18992046CA
:1047F00002F074F90599204602F070F9314620461E
:1048000002F06CF90799204602F068F92946204623
:1048100002F064F9DCE5364B049300234FEA2818D4
:10482000504659469946B8F1010F21DC0BB182463A
:104830008B462F4BABF1547B03EBC90952465B46C9
:10484000D9E90001FBF780FE2A4B0A460B402A49B2
:104850008B428246BCD8A1F580118B4286BFDFF81F
:104860009CB04FF0FF3A02F1547B0023049384E0A4
:1048700018F0010F05D0049BD3E90023FBF764FE79
:104880000123049A083209F101094FEA68080492E9
:10489000C9E7EAD0C8F1000818F00F020AD0134B9C
:1048A00003EBC20350465946D3E90023FBF776FFDA
:1048B00082468B465FEA2818D7D0B8F11F0F1FDD5C
:1048C00000252E460795059522234FF0000A4FF04C
:1048D000000B236086E700BF3D8000088080000851
:1048E00035800008C4810008388500081884000855
:1048F000F08300080000F07F0000A07CFFFFEF7F46
:1049000018F0100318BF6A23DFF8AC9304935046E5
:104910005946002318F0010F04D0D9E90023FBF712
:1049200013FE01235FEA680809F10809F2D10BB10F
:1049300082468B46049BC3B1CBF30A52C2F16B0390
:10494000002B594611DD1F2B40F32481342BDEBF91
:10495000C2F14B024FF0FF3303FA02F24FF0000AAC
:10496000CCBF4FF05C7B02EA010B002200235046D3
:104970005946FCF7D3F80028A2D1079B0093089969
:104980002B463A46204602F011F9079000283FF4E2
:104990001FAF059B9E1B069B002BB4BF3346002315
:1049A0000C93069B002523EAE37312932E46079B84
:1049B0002046596802F052F8059000283FF40CAFE9
:1049C000079B1A69023203F10C0192000C3002F0CD
:1049D00037F84BEC10AB1AAA19A9204602F02CFCB0
:1049E0004BEC18AB189000283FF4F6AE012120469E
:1049F00002F076F9064600283FF4EEAE199B0499C2
:104A0000002BABBF0C9A129A129FDDF83090ACBF0E
:104A100003EB0209D71A1A9AA3EB01089044A14BA1
:104A200008F1FF389845C2F1360280F2C780A3EB47
:104A300008031F2BA2EB03024FF0010100F3B1802A
:104A400001FA03F30D930023089309EB0208049B7A
:104A5000C14517441F444B46A8BF4346BB42A8BFAD
:104A60003B46002BC2BFA8EB0308FF1AA9EB0309C2
:104A70000C9B002B17DD31461A46204602F0F0F958
:104A8000064600283FF4A8AE0146189A204602F0D8
:104A90003DF90B9000283FF49FAE1899204602F094
:104AA0001DF80B9B1893B8F1000F00F38C80069B48
:104AB000002B08DD129A0599204602F0D1F90590E5
:104AC00000283FF489AE002F08DD05993A462046BC
:104AD00002F020FA059000283FF47EAEB9F1000FF5
:104AE00008DD31464A46204602F014FA0646002800
:104AF0003FF472AE059A1899204602F097FA0546DF
:104B000000283FF469AEC3680B930023C3603146AD
:104B100002F070FA002860DA0B9B53EA0A0340F0B7
:104B20008280CBF31303002B7DD12BF000431B0DB0
:104B30001B05B3F1D66F76D96B6913B92B69012BBD
:104B400071DD29460122204602F0E4F9314605468E
:104B500002F050FA002866DD0499534A5B460029AA
:104B600000F0818002EA0B01B1F1D66F7BDCB1F17C
:104B70005C7F7FF7A9AE4D4B504659460022FBF7AC
:104B8000E3FC0B46034308BF222382468B4608BF43
:104B900023602BE64FF0FF3202FA03F303EA0A0A1E
:104BA000E3E6C8F17F4808F57F0808F57B4808F17F
:104BB000E20801FA08F308930D9146E700230893F1
:104BC00001230D9341E718994246204602F0A2F9CD
:104BD000189000287FF46BAFFEE55F466ED10B9A0C
:104BE000CBF3130342B3324A934228D1049B51467C
:104BF000EBB12D4B3B40B3F1D46F4FF0FF3219D8DE
:104C00001B0DC3F16B0302FA03F3994217D1294B31
:104C10009F4202D101313FF4DFAD234B3B4003F50E
:104C2000801B4FF0000A049B002BA4D1DEE54FF05F
:104C3000FF33EAE71346E8E753EA0A038CD0089B00
:104C4000DBB13B42EFD00B9B049A50465946C3B1AF
:104C5000FFF75CFB02460B4651EC180BFBF7BEFA64
:104C600082468B46DFE71340A3F580136FEA135BA0
:104C70006FEA0B5B4FF0FF3AD5E70D9B13EA0A0F83
:104C8000E0E7FFF743FB02460B4651EC180BFBF73E
:104C9000A3FA0022002382468B46FBF73FFF002841
:104CA000C1D011E602FCFFFF0000F07F0000503988
:104CB000FFFF0F00FFFFEF7F988000083146284676
:104CC00002F016FB59EC108B10EE100A00224FF088
:104CD00080434946FBF736FF00287AD00B9B002B18
:104CE0004AD0954B0022CDE90823DFF84C924FF0D3
:104CF0000008924B3B400D930D9A914B9A4240F025
:104D0000B080DDE90801A7F1547B4BEC10ABCDE995
:104D1000080102F015FADDE9080153EC102BFBF74E
:104D200013FC52465B46FBF759FA0B468349854A0A
:104D300019409142824660D918EE903A02F15472BD
:104D4000934204D118EE103A01333FF445ADDFF839
:104D500000B24FF0FF3A1899204601F0BFFE0599C6
:104D6000204601F0BBFE3146204601F0B7FE294641
:104D7000204601F0B3FE1AE6BAF1000F1BD1CBF3C7
:104D80001303F3B96C4B002240464946FBF7D0FEB3
:104D9000D0B9404649466C4B0022FBF7D5FB804614
:104DA000894609F10043CDF850801593DDE91423BD
:104DB000CDE908239DE7BAF1010F02D1002F3FF49E
:104DC00083AD624B00228EE7DFF87C914FF0000844
:104DD000E7E75D4B404649460022FBF7B5FB0B9BDE
:104DE0008046894633B901F100430E900F93DDE907
:104DF0000E23DDE7CDE90E89F9E703F1547B049B2F
:104E0000002BA8D12BF000430D9A1B0D1B059A42D5
:104E1000A1D140464946FBF739FFFBF767FB024645
:104E20000B4640464946FBF7D7F90B9ACBF31303E1
:104E300043EA0A0313438046894655D036A3D3E993
:104E40000023FBF775FE00287FF4D0AC34A3D3E930
:104E5000002340464946FBF789FE00283FF47BAF1C
:104E6000C4E4049B33B30D9BB3F1D46F22D82EA3BB
:104E7000D3E9002340464946FBF764FEA0B149460A
:104E80004046FBF793FE012838BF0120FBF7E2FA0A
:104E90000B9B8046894623BB01F100431090119380
:104EA000DDE91023CDE90823099B0D9A03F1D663B0
:104EB0009B1A0993DDE90801B0EE480AF0EE680A92
:104EC000CDE9080102F03CF9DDE9080153EC102BB3
:104ED000FBF73AFB53EC182BFBF780F982468B4625
:104EE0008DE7CDE91089DBE711A3D3E90023FBF7B8
:104EF0001FFEB2E700230A93139A179B1360FFF774
:104F00006BBA652A3FF45FAB452A3FF45CAB0123E3
:104F1000FFF794BBAFF300809535A094FFFFDF3F10
:104F200035E5AF350000E03F0000C0FFFFFFDF4187
:104F30009535A094FFFFCF3F0000F03F0000F07FC9
:104F40000000E07FFFFF9F7C0000E03F0000F0BF1B
:104F5000FFFFEF7F014BFFF7F7B900BFB40400205C
:104F6000012B2DE9F04701D0242B06D900F0B6FF24
:104F7000162303600020BDE8F087DFF8E4C00D468B
:104F80002E4615F8014B14F80C7017F00807F7D1EE
:104F90002D2C32D12C780127B51C002B5BD0102B87
:104FA00009D1302C07D12C7804F0DF04582C4DD1D6
:104FB0006C781023023507F1004808F1FF384FF0F4
:104FC000000CB8FBF3F9664603FB198AA4F1300E16
:104FD000BEF1090F16D87446A34224DDBCF1000FC0
:104FE0001EDBB1451CD301D1A24519DB06FB0346EC
:104FF0004FF0010C15F8014BE8E72B2C04BF2C787F
:10500000B51CCAE7A4F1410EBEF1190F01D8373C17
:10501000E2E7A4F1610EBEF1190F04D8573CDBE7BB
:105020004FF0FF3CE6E7BCF1000F05DA22230360F6
:10503000464642B930469EE707B17642002AF9D08B
:10504000BCF1000F00D0691E1160F3E73024002B83
:10505000B1D10823AFE7302CA5D00A23ABE700BFBE
:10506000C1800008FFF77CBFF8B50E461446054620
:1050700018B183690BB901F051F8214B9C422BD137
:105080006C68A369A360A3891A072FD523696BB342
:1050900023692068C01A6369F6B28342374604DC8C
:1050A0002146284600F0A6FF30BBA368013BA36061
:1050B00023685A1C22601E7063690130834204D049
:1050C000A389DB0706D50A2E04D12146284600F025
:1050D00091FF88B93846F8BD0A4B9C4201D1AC68B3
:1050E000CFE7094B9C4208BFEC68CAE72146284637
:1050F00000F00CF80028CBD04FF0FF37EAE700BFF4
:1051000094820008B482000874820008324B70B5A3
:105110001D6806460C4625B1AB6913B9284600F058
:10512000FDFF2E4B9C420FD16C68A389B4F90C2073
:1051300019072CD4DD0611D40923336042F0400353
:10514000A3814FF0FF303EE0254B9C4201D1AC687B
:10515000EBE7244B9C4208BFEC68E6E7580712D502
:10516000616B41B104F14403994202D0304602F030
:105170004DF900236363A38923F02403A381002353
:10518000636023692360A38943F00803A381236933
:105190004BB9A38903F42073B3F5007F03D02146F4
:1051A000304601F0F3FBA089B4F90C2010F00103A4
:1051B0000AD00023A36063695B42A361236943B9FA
:1051C00010F08000BAD170BD810758BF6369A36039
:1051D000F4E70020F7E700BF4C04002094820008A9
:1051E000B4820008748200082DE9F74F03690C6946
:1051F000A3420746C0F28180013C01F1140800F18E
:10520000140505EB8403019358F8243055F8242045
:1052100001339A424FEA840B08EB8409B2FBF3F6A0
:1052200031D34FF0000E4046AC46F24650F8042B06
:1052300093B206FB03E34FEA134E9BB2AAEB0303C0
:10524000DCF800A0120C13FA8AF306FB02E20093CA
:10525000009B4FEA124E92B2C2EB1A4202EB23427B
:10526000BDF80030814543EA02434CF8043B4FEA65
:10527000224ADBD255F80B302BB9019B043B9D42EF
:105280001A462ED33C61384601F0B4FE002824DBD8
:10529000013628464FF0000C58F8042BD0F800E0F7
:1052A00093B2ACEB0303120C13FA8EF3C2EB1E4263
:1052B00002EB23429BB243EA0243C14540F8043B60
:1052C0004FEA224CE8D255F8242005EB840322B99A
:1052D000043B9D421A460AD33C61304603B0BDE808
:1052E000F08F1268043B002ACCD1013CC7E712685A
:1052F000043B002AF0D1013CEBE70020EEE7000080
:105300002DE9F04F2DED048B57EC106B93B0456AEF
:10531000DDF88080069110EE10AA044609920C93E5
:10532000BB4675B9102001F071FB0246606220B9DE
:10533000A74BEA21A74802F08DFCC0E901550560A2
:10534000C560636A196851B15A684A600123934085
:105350008B60204601F0C2FB636A00221A603B1E8C
:10536000AABF002323F0004BC8F800309A4BBCBF03
:105370000122C8F8002033EA0B031BD10C9A42F239
:105380000F731360CBF31303334300F09285219B1B
:1053900063B9924B22E0924B01930833219A136038
:1053A000019813B0BDEC048BBDE8F08F8B4B0193DB
:1053B0000333F3E70022002350465946FBF7AEFBC8
:1053C0004BEC19AB804658B10C9A01231360219B1A
:1053D000002B00F06B8583481860431E0193DFE7C4
:1053E0004BEC10AB10AA11A9204601F025FFCBF31E
:1053F0000A5508EE100A002D00F0848019EE903A4C
:10540000C3F3130343F07F57564647F44017A5F202
:10541000FF35CDF83880744B002230463946FAF714
:10542000DBFE65A3D3E90023FBF78EF864A3D3E981
:105430000023FAF7D3FE064628460F46FBF71AF874
:1054400061A3D3E90023FBF77FF802460B46304601
:105450003946FAF7C3FE06460F46FBF787FA0022E5
:105460000090002330463946FBF762FB50B10098AC
:10547000FBF700F832463B46FBF750FB10B9009BA8
:10548000013B0093009B162B5AD8009A574B03EB15
:10549000C203D3E9002351EC190BFBF749FB0028A9
:1054A00050D0009B013B009300230B93109B5D1B8E
:1054B0006B1E059345BFC5F1010304930023002330
:1054C0004CBF05930493009B002B3DDB059B009A8A
:1054D0000A921344059300230793069B092B00F2BD
:1054E0008980052BC4BF043B0693069BA3F10203EE
:1054F000CCBF00250125032B00F28780DFE803F0F5
:105500002D3A3859DDE910531D4405F23243202B62
:10551000C1BFC3F1400305F212400BFA03F326FAB0
:1055200000F0DABFC3F1200306FA03F01843FAF7DC
:1055300091FF01230646A1F1F877013D0E936AE73A
:105540000123B2E70B90B1E7049B009A9B1A0493E6
:105550005342079300230A93BFE700230893099B54
:10556000002B55DC0123CDE902331A4609920CE0E9
:105570000123F3E70023099A0893009B1344029345
:105580000133012B0393B8BF0123606A00224260FC
:10559000042202F114069E4241683DD9204601F0E2
:1055A0005DFA019000283BD1114B02464FF4D571B2
:1055B000C0E60123DFE700BF61436F63A787D23FE7
:1055C000B3C8608B288AC63FFB799F501344D33FF2
:1055D000CE810008E58100080000F07FCA81000844
:1055E000C1810008418000080000F83F18840008CD
:1055F0006382000801250023069308954FF0FF33CE
:10560000CDE9023300221223B0E701230893F5E726
:10561000099BCDE90233B8E7013141605200B8E798
:10562000636A019A1A60039B0E2B00F29D80002D85
:1056300000F09A80009B002B32DDB74A03F00F0385
:1056400002EBC303D3E90089009BD8054FEA231777
:1056500016D5B24B51EC190BD3E90823FBF79EF892
:1056600007F00F0782468B460325AC4E57B94246DA
:105670004B4650465946FBF791F882468B4628E048
:105680000225F2E7F90708D540464946D6E9002346
:10569000FAF75AFF0135804689467F100836E5E75C
:1056A00000F09B80009B9D4F5E429B4B06F00F02DB
:1056B00003EBC203D3E9002351EC190BFAF744FFC3
:1056C000361182468B4600230225002E7AD1002B0C
:1056D000D3D10B9B002B00F08280914B00225046CF
:1056E0005946FBF725FA002879D0039B002B76D08A
:1056F000029B002B36DD009B504659465F1E002260
:10570000884BFAF721FF029E82468B4601352846D8
:10571000FAF7B0FE52465B46FAF716FF824B0022BC
:10572000FAF75CFDD046D9468246A1F1507B002EA7
:1057300058D17E4B002240464946FAF74DFD52466D
:105740005B4680468946FBF711FA002840F09582B7
:1057500052460BF1004340464946FBF7E9F9002861
:1057600040F089825BEC19AB119B002BC0F24881A1
:10577000009A0E2A00F34481674B03EBC203D3E97E
:105780000089099B002B80F2D580039B002B00F33E
:10579000D18040F06F82654B002240464946FAF7BF
:1057A000D3FE52465B46FBF7D7F9039E37460028E7
:1057B00040F04582019D312305F8013B009B0133F8
:1057C000009340E2F20705D5D7E90023FAF7BCFEC3
:1057D000013501237610083777E7022579E7009F26
:1057E000039E94E701994C4B31440D91089903EBCA
:1057F000C60353E90223002943D04D490020FAF79C
:10580000CDFF52465B46FAF7E7FC019D82468B4688
:1058100049464046FBF7AAF80646FAF72BFE024631
:105820000B4640464946FAF7D7FC303605F8016B7F
:1058300052465B4680468946FBF77AF9002863D1D9
:1058400042464B4636490020FAF7C6FC52465B46B4
:10585000FBF76EF9002840F0B5800D9B9D4281D08A
:10586000304B002250465946FAF76EFE2D4B8246C9
:105870008B46404649460022FAF766FE8046894636
:10588000C6E750465946FAF75FFE0D9B019D0F9300
:1058900082468B4649464046FBF768F80646FAF7CB
:1058A000E9FD303602460B4640464946FAF794FC7D
:1058B00005F8016B0D9B9D42804689464FF0000222
:1058C00024D11B4B50465946FAF788FC02460B463A
:1058D00040464946FBF74AF9002873D152465B46D9
:1058E00013490020FAF778FC02460B464046494629
:1058F000FBF71EF900283FF435AF0F9D6B1E0F9389
:1059000015F8013C302BF8D0009749E0054BFAF729
:105910001BFE80468946BDE718840008F083000816
:105920000000F03F0000244000001C400000144034
:105930000000E03F019D56465F4642464B463046DA
:105940003946FAF72BFFFBF711F88246FAF792FD7A
:1059500042464B46FAF7F8FD02460B4630463946BA
:105960000AF13006FAF738FC05F8016B019E039F37
:10597000AE1BB74202460B4635D1FAF72FFC424622
:105980004B4606460F46FBF7F1F8D0B942464B4668
:1059900030463946FBF7C2F810B11AF0010F10D1AA
:1059A000204618EE101A01F099F8002300982B7089
:1059B0000C9B01301860219B002B3FF4F1AC1D6063
:1059C000EEE4009F2B461D4613F8012D392A06D11F
:1059D000019A9A42F7D10199302201370A701A7858
:1059E00001321A7090E7A64B0022FAF7ADFD0022B3
:1059F000002306460F46FBF791F800289DD0CFE71D
:105A0000089A002A00F0D780069A012A00F3BA808B
:105A10000E9A002A00F0B28003F23343079E049DE1
:105A2000049A1A440492059A01211A4420460592C8
:105A300001F056F90746002D0CDD059B002B09DD12
:105A4000AB42049AA8BF2B46D21A0492059AED1ACB
:105A5000D31A0593079B1BB3089B002B00F0AF8064
:105A6000002E13DD39463246204601F0F9F918EED2
:105A7000102A01460746204601F048F918EE101A90
:105A80008046204601F02AF808EE108A079B9A1BF0
:105A900006D018EE101A204601F0E2F908EE100ABE
:105AA0000121204601F01CF90A9B002B064640F319
:105AB00088801A460146204601F0D2F9069B012B48
:105AC000064640F381804FF00008336906EB8303FC
:105AD000186901F0B5F8C0F12000059B184410F0DA
